{
  "_format": "hh-sol-artifact-1",
  "contractName": "MyEpicNFT",
  "sourceName": "contracts/MyEpicNFT.sol",
  "abi": [
    {
      "inputs": [],
      "stateMutability": "nonpayable",
      "type": "constructor"
    },
    {
      "anonymous": false,
      "inputs": [
        {
          "indexed": true,
          "internalType": "address",
          "name": "owner",
          "type": "address"
        },
        {
          "indexed": true,
          "internalType": "address",
          "name": "approved",
          "type": "address"
        },
        {
          "indexed": true,
          "internalType": "uint256",
          "name": "tokenId",
          "type": "uint256"
        }
      ],
      "name": "Approval",
      "type": "event"
    },
    {
      "anonymous": false,
      "inputs": [
        {
          "indexed": true,
          "internalType": "address",
          "name": "owner",
          "type": "address"
        },
        {
          "indexed": true,
          "internalType": "address",
          "name": "operator",
          "type": "address"
        },
        {
          "indexed": false,
          "internalType": "bool",
          "name": "approved",
          "type": "bool"
        }
      ],
      "name": "ApprovalForAll",
      "type": "event"
    },
    {
      "anonymous": false,
      "inputs": [
        {
          "indexed": false,
          "internalType": "address",
          "name": "sender",
          "type": "address"
        },
        {
          "indexed": false,
          "internalType": "uint256",
          "name": "tokenId",
          "type": "uint256"
        }
      ],
      "name": "NewEpicNFTMinted",
      "type": "event"
    },
    {
      "anonymous": false,
      "inputs": [
        {
          "indexed": true,
          "internalType": "address",
          "name": "from",
          "type": "address"
        },
        {
          "indexed": true,
          "internalType": "address",
          "name": "to",
          "type": "address"
        },
        {
          "indexed": true,
          "internalType": "uint256",
          "name": "tokenId",
          "type": "uint256"
        }
      ],
      "name": "Transfer",
      "type": "event"
    },
    {
      "inputs": [],
      "name": "MAX_MINT",
      "outputs": [
        {
          "internalType": "uint256",
          "name": "",
          "type": "uint256"
        }
      ],
      "stateMutability": "view",
      "type": "function"
    },
    {
      "inputs": [
        {
          "internalType": "address",
          "name": "to",
          "type": "address"
        },
        {
          "internalType": "uint256",
          "name": "tokenId",
          "type": "uint256"
        }
      ],
      "name": "approve",
      "outputs": [],
      "stateMutability": "nonpayable",
      "type": "function"
    },
    {
      "inputs": [
        {
          "internalType": "address",
          "name": "owner",
          "type": "address"
        }
      ],
      "name": "balanceOf",
      "outputs": [
        {
          "internalType": "uint256",
          "name": "",
          "type": "uint256"
        }
      ],
      "stateMutability": "view",
      "type": "function"
    },
    {
      "inputs": [
        {
          "internalType": "uint256",
          "name": "tokenId",
          "type": "uint256"
        }
      ],
      "name": "getApproved",
      "outputs": [
        {
          "internalType": "address",
          "name": "",
          "type": "address"
        }
      ],
      "stateMutability": "view",
      "type": "function"
    },
    {
      "inputs": [],
      "name": "getTotalNFTsMintedSoFar",
      "outputs": [
        {
          "internalType": "uint256",
          "name": "",
          "type": "uint256"
        }
      ],
      "stateMutability": "view",
      "type": "function"
    },
    {
      "inputs": [
        {
          "internalType": "address",
          "name": "owner",
          "type": "address"
        },
        {
          "internalType": "address",
          "name": "operator",
          "type": "address"
        }
      ],
      "name": "isApprovedForAll",
      "outputs": [
        {
          "internalType": "bool",
          "name": "",
          "type": "bool"
        }
      ],
      "stateMutability": "view",
      "type": "function"
    },
    {
      "inputs": [],
      "name": "makeAnEpicNFT",
      "outputs": [],
      "stateMutability": "nonpayable",
      "type": "function"
    },
    {
      "inputs": [],
      "name": "name",
      "outputs": [
        {
          "internalType": "string",
          "name": "",
          "type": "string"
        }
      ],
      "stateMutability": "view",
      "type": "function"
    },
    {
      "inputs": [
        {
          "internalType": "uint256",
          "name": "tokenId",
          "type": "uint256"
        }
      ],
      "name": "ownerOf",
      "outputs": [
        {
          "internalType": "address",
          "name": "",
          "type": "address"
        }
      ],
      "stateMutability": "view",
      "type": "function"
    },
    {
      "inputs": [
        {
          "internalType": "uint256",
          "name": "tokenId",
          "type": "uint256"
        }
      ],
      "name": "pickRandomColor",
      "outputs": [
        {
          "internalType": "string",
          "name": "",
          "type": "string"
        }
      ],
      "stateMutability": "view",
      "type": "function"
    },
    {
      "inputs": [
        {
          "internalType": "uint256",
          "name": "tokenId",
          "type": "uint256"
        }
      ],
      "name": "pickRandomFirstWord",
      "outputs": [
        {
          "internalType": "string",
          "name": "",
          "type": "string"
        }
      ],
      "stateMutability": "view",
      "type": "function"
    },
    {
      "inputs": [
        {
          "internalType": "uint256",
          "name": "tokenId",
          "type": "uint256"
        }
      ],
      "name": "pickRandomSecondWord",
      "outputs": [
        {
          "internalType": "string",
          "name": "",
          "type": "string"
        }
      ],
      "stateMutability": "view",
      "type": "function"
    },
    {
      "inputs": [
        {
          "internalType": "uint256",
          "name": "tokenId",
          "type": "uint256"
        }
      ],
      "name": "pickRandomThirdWord",
      "outputs": [
        {
          "internalType": "string",
          "name": "",
          "type": "string"
        }
      ],
      "stateMutability": "view",
      "type": "function"
    },
    {
      "inputs": [
        {
          "internalType": "address",
          "name": "from",
          "type": "address"
        },
        {
          "internalType": "address",
          "name": "to",
          "type": "address"
        },
        {
          "internalType": "uint256",
          "name": "tokenId",
          "type": "uint256"
        }
      ],
      "name": "safeTransferFrom",
      "outputs": [],
      "stateMutability": "nonpayable",
      "type": "function"
    },
    {
      "inputs": [
        {
          "internalType": "address",
          "name": "from",
          "type": "address"
        },
        {
          "internalType": "address",
          "name": "to",
          "type": "address"
        },
        {
          "internalType": "uint256",
          "name": "tokenId",
          "type": "uint256"
        },
        {
          "internalType": "bytes",
          "name": "_data",
          "type": "bytes"
        }
      ],
      "name": "safeTransferFrom",
      "outputs": [],
      "stateMutability": "nonpayable",
      "type": "function"
    },
    {
      "inputs": [
        {
          "internalType": "address",
          "name": "operator",
          "type": "address"
        },
        {
          "internalType": "bool",
          "name": "approved",
          "type": "bool"
        }
      ],
      "name": "setApprovalForAll",
      "outputs": [],
      "stateMutability": "nonpayable",
      "type": "function"
    },
    {
      "inputs": [
        {
          "internalType": "bytes4",
          "name": "interfaceId",
          "type": "bytes4"
        }
      ],
      "name": "supportsInterface",
      "outputs": [
        {
          "internalType": "bool",
          "name": "",
          "type": "bool"
        }
      ],
      "stateMutability": "view",
      "type": "function"
    },
    {
      "inputs": [],
      "name": "symbol",
      "outputs": [
        {
          "internalType": "string",
          "name": "",
          "type": "string"
        }
      ],
      "stateMutability": "view",
      "type": "function"
    },
    {
      "inputs": [
        {
          "internalType": "uint256",
          "name": "tokenId",
          "type": "uint256"
        }
      ],
      "name": "tokenURI",
      "outputs": [
        {
          "internalType": "string",
          "name": "",
          "type": "string"
        }
      ],
      "stateMutability": "view",
      "type": "function"
    },
    {
      "inputs": [
        {
          "internalType": "address",
          "name": "from",
          "type": "address"
        },
        {
          "internalType": "address",
          "name": "to",
          "type": "address"
        },
        {
          "internalType": "uint256",
          "name": "tokenId",
          "type": "uint256"
        }
      ],
      "name": "transferFrom",
      "outputs": [],
      "stateMutability": "nonpayable",
      "type": "function"
    }
  ],
  "bytecode": "0x608060405260405180610100016040528060d3815260200162004fe660d39139600890805190602001906200003692919062000f1a565b50604051806080016040528060568152602001620050b960569139600990805190602001906200006892919062000f1a565b50604051806101e001604052806040518060400160405280600981526020017f50737963686f746963000000000000000000000000000000000000000000000081525081526020016040518060400160405280600681526020017f53706f6f6b79000000000000000000000000000000000000000000000000000081525081526020016040518060400160405280600881526020017f416e6e6f79696e6700000000000000000000000000000000000000000000000081525081526020016040518060400160405280600881526020017f436f776172646c7900000000000000000000000000000000000000000000000081525081526020016040518060400160405280600681526020017f5769636b6564000000000000000000000000000000000000000000000000000081525081526020016040518060400160405280600681526020017f437265657079000000000000000000000000000000000000000000000000000081525081526020016040518060400160405280600681526020017f4772756d7079000000000000000000000000000000000000000000000000000081525081526020016040518060400160405280600381526020017f466174000000000000000000000000000000000000000000000000000000000081525081526020016040518060400160405280600381526020017f426967000000000000000000000000000000000000000000000000000000000081525081526020016040518060400160405280600581526020017f467572727900000000000000000000000000000000000000000000000000000081525081526020016040518060400160405280600881526020017f577265746368656400000000000000000000000000000000000000000000000081525081526020016040518060400160405280600481526020017f4c616d650000000000000000000000000000000000000000000000000000000081525081526020016040518060400160405280600a81526020017f506f73736573736976650000000000000000000000000000000000000000000081525081526020016040518060400160405280600581526020017f4372617a7900000000000000000000000000000000000000000000000000000081525081526020016040518060400160405280600a81526020017f54657272696679696e6700000000000000000000000000000000000000000000815250815250600a90600f620003fa92919062000fab565b50604051806101e001604052806040518060400160405280600881526020017f53616e647769636800000000000000000000000000000000000000000000000081525081526020016040518060400160405280600781526020017f43757063616b650000000000000000000000000000000000000000000000000081525081526020016040518060400160405280600581526020017f50697a7a6100000000000000000000000000000000000000000000000000000081525081526020016040518060400160405280600981526020017f4d696c6b7368616b65000000000000000000000000000000000000000000000081525081526020016040518060400160405280600781526020017f436869636b656e0000000000000000000000000000000000000000000000000081525081526020016040518060400160405280600881526020017f506f707369636c6500000000000000000000000000000000000000000000000081525081526020016040518060400160405280600781526020017f50756464696e670000000000000000000000000000000000000000000000000081525081526020016040518060400160405280600481526020017f55646f6e0000000000000000000000000000000000000000000000000000000081525081526020016040518060400160405280600581526020017f467269657300000000000000000000000000000000000000000000000000000081525081526020016040518060400160405280600481526020017f536f75700000000000000000000000000000000000000000000000000000000081525081526020016040518060400160405280600581526020017f53616c616400000000000000000000000000000000000000000000000000000081525081526020016040518060400160405280600881526020017f46726f7374696e6700000000000000000000000000000000000000000000000081525081526020016040518060400160405280600781526020017f4c617361676e650000000000000000000000000000000000000000000000000081525081526020016040518060400160405280600a81526020017f57617465726d656c6f6e0000000000000000000000000000000000000000000081525081526020016040518060400160405280600881526020017f42726f63636f6c69000000000000000000000000000000000000000000000000815250815250600b90600f6200078c92919062000fab565b50604051806101e001604052806040518060400160405280600781526020017f4d6f6e737465720000000000000000000000000000000000000000000000000081525081526020016040518060400160405280600581526020017f426561737400000000000000000000000000000000000000000000000000000081525081526020016040518060400160405280600781526020017f56616d706972650000000000000000000000000000000000000000000000000081525081526020016040518060400160405280600581526020017f5468696e6700000000000000000000000000000000000000000000000000000081525081526020016040518060400160405280600581526020017f44656d6f6e00000000000000000000000000000000000000000000000000000081525081526020016040518060400160405280600581526020017f47686f737400000000000000000000000000000000000000000000000000000081525081526020016040518060400160405280600581526020017f466169727900000000000000000000000000000000000000000000000000000081525081526020016040518060400160405280600681526020017f537069726974000000000000000000000000000000000000000000000000000081525081526020016040518060400160405280600481526020017f476f61740000000000000000000000000000000000000000000000000000000081525081526020016040518060400160405280600781526020017f42616e736865650000000000000000000000000000000000000000000000000081525081526020016040518060400160405280600581526020017f486172707900000000000000000000000000000000000000000000000000000081525081526020016040518060400160405280600a81526020017f4c65707265636861756e0000000000000000000000000000000000000000000081525081526020016040518060400160405280600581526020017f476e6f6d6500000000000000000000000000000000000000000000000000000081525081526020016040518060400160405280600781526020017f556e69636f726e0000000000000000000000000000000000000000000000000081525081526020016040518060400160405280600481526020017f5965746900000000000000000000000000000000000000000000000000000000815250815250600c90600f62000b1e92919062000fab565b506040518061012001604052806040518060400160405280600381526020017f726564000000000000000000000000000000000000000000000000000000000081525081526020016040518060400160405280600781526020017f233038433241380000000000000000000000000000000000000000000000000081525081526020016040518060400160405280600581526020017f626c61636b00000000000000000000000000000000000000000000000000000081525081526020016040518060400160405280600681526020017f79656c6c6f77000000000000000000000000000000000000000000000000000081525081526020016040518060400160405280600481526020017f626c75650000000000000000000000000000000000000000000000000000000081525081526020016040518060400160405280600581526020017f677265656e00000000000000000000000000000000000000000000000000000081525081526020016040518060400160405280600681526020017f707572706c65000000000000000000000000000000000000000000000000000081525081526020016040518060400160405280600681526020017f6f72616e6765000000000000000000000000000000000000000000000000000081525081526020016040518060400160405280600481526020017f70696e6b00000000000000000000000000000000000000000000000000000000815250815250600d90600962000d4e92919062001012565b5034801562000d5c57600080fd5b506040518060400160405280600981526020017f5371756172654e465400000000000000000000000000000000000000000000008152506040518060400160405280600681526020017f5351554152450000000000000000000000000000000000000000000000000000815250816000908051906020019062000de192919062000f1a565b50806001908051906020019062000dfa92919062000f1a565b50505062000e486040518060400160405280601e81526020017f54686973206973206d79204e465420636f6e74726163742e20576f616821000081525062000e4e60201b620012fd1760201c565b62001233565b62000eee8160405160240162000e65919062001147565b6040516020818303038152906040527f41304fac000000000000000000000000000000000000000000000000000000007bffffffffffffffffffffffffffffffffffffffffffffffffffffffff19166020820180517bffffffffffffffffffffffffffffffffffffffffffffffffffffffff838183161783525050505062000ef160201b60201c565b50565b60008151905060006a636f6e736f6c652e6c6f679050602083016000808483855afa5050505050565b82805462000f2890620011bd565b90600052602060002090601f01602090048101928262000f4c576000855562000f98565b82601f1062000f6757805160ff191683800117855562000f98565b8280016001018555821562000f98579182015b8281111562000f9757825182559160200191906001019062000f7a565b5b50905062000fa7919062001079565b5090565b82805482825590600052602060002090810192821562000fff579160200282015b8281111562000ffe57825182908051906020019062000fed92919062000f1a565b509160200191906001019062000fcc565b5b5090506200100e919062001098565b5090565b82805482825590600052602060002090810192821562001066579160200282015b82811115620010655782518290805190602001906200105492919062000f1a565b509160200191906001019062001033565b5b50905062001075919062001098565b5090565b5b80821115620010945760008160009055506001016200107a565b5090565b5b80821115620010bc5760008181620010b29190620010c0565b5060010162001099565b5090565b508054620010ce90620011bd565b6000825580601f10620010e2575062001103565b601f01602090049060005260206000209081019062001102919062001079565b5b50565b600062001113826200116b565b6200111f818562001176565b93506200113181856020860162001187565b6200113c8162001222565b840191505092915050565b6000602082019050818103600083015262001163818462001106565b905092915050565b600081519050919050565b600082825260208201905092915050565b60005b83811015620011a75780820151818401526020810190506200118a565b83811115620011b7576000848401525b50505050565b60006002820490506001821680620011d657607f821691505b60208210811415620011ed57620011ec620011f3565b5b50919050565b7f4e487b7100000000000000000000000000000000000000000000000000000000600052602260045260246000fd5b6000601f19601f8301169050919050565b613da380620012436000396000f3fe608060405234801561001057600080fd5b506004361061012c5760003560e01c806370a08231116100ad578063c575757a11610071578063c575757a14610367578063c87b56dd14610397578063de9d132f146103c7578063e985e9c5146103d1578063f0292a03146104015761012c565b806370a08231146102b157806395d89b41146102e1578063a22cb465146102ff578063b187301f1461031b578063b88d4fde1461034b5761012c565b806323b872dd116100f457806323b872dd146101e95780632de38d681461020557806342842e0e14610235578063514dc8c6146102515780636352211e146102815761012c565b806301ffc9a714610131578063060475901461016157806306fdde031461017f578063081812fc1461019d578063095ea7b3146101cd575b600080fd5b61014b60048036038101906101469190612729565b61041f565b6040516101589190612efa565b60405180910390f35b610169610501565b6040516101769190613195565b60405180910390f35b610187610512565b6040516101949190612f15565b60405180910390f35b6101b760048036038101906101b2919061277b565b6105a4565b6040516101c49190612e6a565b60405180910390f35b6101e760048036038101906101e291906126ed565b610629565b005b61020360048036038101906101fe91906125e7565b610741565b005b61021f600480360381019061021a919061277b565b6107a1565b60405161022c9190612f15565b60405180910390f35b61024f600480360381019061024a91906125e7565b6108bf565b005b61026b6004803603810190610266919061277b565b6108df565b6040516102789190612f15565b60405180910390f35b61029b6004803603810190610296919061277b565b6109fd565b6040516102a89190612e6a565b60405180910390f35b6102cb60048036038101906102c69190612582565b610aaf565b6040516102d89190613195565b60405180910390f35b6102e9610b67565b6040516102f69190612f15565b60405180910390f35b610319600480360381019061031491906126b1565b610bf9565b005b6103356004803603810190610330919061277b565b610c0f565b6040516103429190612f15565b60405180910390f35b61036560048036038101906103609190612636565b610d2d565b005b610381600480360381019061037c919061277b565b610d8f565b60405161038e9190612f15565b60405180910390f35b6103b160048036038101906103ac919061277b565b610ead565b6040516103be9190612f15565b60405180910390f35b6103cf610fff565b005b6103eb60048036038101906103e691906125ab565b611264565b6040516103f89190612efa565b60405180910390f35b6104096112f8565b6040516104169190613195565b60405180910390f35b60007f80ac58cd000000000000000000000000000000000000000000000000000000007bffffffffffffffffffffffffffffffffffffffffffffffffffffffff1916827bffffffffffffffffffffffffffffffffffffffffffffffffffffffff191614806104ea57507f5b5e139f000000000000000000000000000000000000000000000000000000007bffffffffffffffffffffffffffffffffffffffffffffffffffffffff1916827bffffffffffffffffffffffffffffffffffffffffffffffffffffffff1916145b806104fa57506104f982611396565b5b9050919050565b600061050d6007611400565b905090565b60606000805461052190613429565b80601f016020809104026020016040519081016040528092919081815260200182805461054d90613429565b801561059a5780601f1061056f5761010080835404028352916020019161059a565b820191906000526020600020905b81548152906001019060200180831161057d57829003601f168201915b5050505050905090565b60006105af8261140e565b6105ee576040517f08c379a00000000000000000000000000000000000000000000000000000000081526004016105e590613115565b60405180910390fd5b6004600083815260200190815260200160002060009054906101000a900473ffffffffffffffffffffffffffffffffffffffff169050919050565b6000610634826109fd565b90508073ffffffffffffffffffffffffffffffffffffffff168373ffffffffffffffffffffffffffffffffffffffff1614156106a5576040517f08c379a000000000000000000000000000000000000000000000000000000000815260040161069c90613155565b60405180910390fd5b8073ffffffffffffffffffffffffffffffffffffffff166106c461147a565b73ffffffffffffffffffffffffffffffffffffffff1614806106f357506106f2816106ed61147a565b611264565b5b610732576040517f08c379a000000000000000000000000000000000000000000000000000000000815260040161072990613055565b60405180910390fd5b61073c8383611482565b505050565b61075261074c61147a565b8261153b565b610791576040517f08c379a000000000000000000000000000000000000000000000000000000000815260040161078890613175565b60405180910390fd5b61079c838383611619565b505050565b606060006107d56107b184611880565b6040516020016107c19190612e04565b604051602081830303815290604052611a2d565b9050600a80549050816107e891906134d5565b9050600a8181548110610824577f4e487b7100000000000000000000000000000000000000000000000000000000600052603260045260246000fd5b90600052602060002001805461083990613429565b80601f016020809104026020016040519081016040528092919081815260200182805461086590613429565b80156108b25780601f10610887576101008083540402835291602001916108b2565b820191906000526020600020905b81548152906001019060200180831161089557829003601f168201915b5050505050915050919050565b6108da83838360405180602001604052806000815250610d2d565b505050565b606060006109136108ef84611880565b6040516020016108ff9190612e48565b604051602081830303815290604052611a2d565b9050600d805490508161092691906134d5565b9050600d8181548110610962577f4e487b7100000000000000000000000000000000000000000000000000000000600052603260045260246000fd5b90600052602060002001805461097790613429565b80601f01602080910402602001604051908101604052809291908181526020018280546109a390613429565b80156109f05780601f106109c5576101008083540402835291602001916109f0565b820191906000526020600020905b8154815290600101906020018083116109d357829003601f168201915b5050505050915050919050565b6000806002600084815260200190815260200160002060009054906101000a900473ffffffffffffffffffffffffffffffffffffffff169050600073ffffffffffffffffffffffffffffffffffffffff168173ffffffffffffffffffffffffffffffffffffffff161415610aa6576040517f08c379a0000000000000000000000000000000000000000000000000000000008152600401610a9d90613095565b60405180910390fd5b80915050919050565b60008073ffffffffffffffffffffffffffffffffffffffff168273ffffffffffffffffffffffffffffffffffffffff161415610b20576040517f08c379a0000000000000000000000000000000000000000000000000000000008152600401610b1790613075565b60405180910390fd5b600360008373ffffffffffffffffffffffffffffffffffffffff1673ffffffffffffffffffffffffffffffffffffffff168152602001908152602001600020549050919050565b606060018054610b7690613429565b80601f0160208091040260200160405190810160405280929190818152602001828054610ba290613429565b8015610bef5780601f10610bc457610100808354040283529160200191610bef565b820191906000526020600020905b815481529060010190602001808311610bd257829003601f168201915b5050505050905090565b610c0b610c0461147a565b8383611a60565b5050565b60606000610c43610c1f84611880565b604051602001610c2f9190612d9d565b604051602081830303815290604052611a2d565b9050600b8054905081610c5691906134d5565b9050600b8181548110610c92577f4e487b7100000000000000000000000000000000000000000000000000000000600052603260045260246000fd5b906000526020600020018054610ca790613429565b80601f0160208091040260200160405190810160405280929190818152602001828054610cd390613429565b8015610d205780601f10610cf557610100808354040283529160200191610d20565b820191906000526020600020905b815481529060010190602001808311610d0357829003601f168201915b5050505050915050919050565b610d3e610d3861147a565b8361153b565b610d7d576040517f08c379a0000000000000000000000000000000000000000000000000000000008152600401610d7490613175565b60405180910390fd5b610d8984848484611bcd565b50505050565b60606000610dc3610d9f84611880565b604051602001610daf9190612d7b565b604051602081830303815290604052611a2d565b9050600c8054905081610dd691906134d5565b9050600c8181548110610e12577f4e487b7100000000000000000000000000000000000000000000000000000000600052603260045260246000fd5b906000526020600020018054610e2790613429565b80601f0160208091040260200160405190810160405280929190818152602001828054610e5390613429565b8015610ea05780601f10610e7557610100808354040283529160200191610ea0565b820191906000526020600020905b815481529060010190602001808311610e8357829003601f168201915b5050505050915050919050565b6060610eb88261140e565b610ef7576040517f08c379a0000000000000000000000000000000000000000000000000000000008152600401610eee906130f5565b60405180910390fd5b6000600660008481526020019081526020016000208054610f1790613429565b80601f0160208091040260200160405190810160405280929190818152602001828054610f4390613429565b8015610f905780601f10610f6557610100808354040283529160200191610f90565b820191906000526020600020905b815481529060010190602001808311610f7357829003601f168201915b505050505090506000610fa1611c29565b9050600081511415610fb7578192505050610ffa565b600082511115610fec578082604051602001610fd4929190612cbb565b60405160208183030381529060405292505050610ffa565b610ff584611c40565b925050505b919050565b600061100b6007611400565b905060328110611050576040517f08c379a000000000000000000000000000000000000000000000000000000000815260040161104790613015565b60405180910390fd5b600061105b826107a1565b9050600061106883610c0f565b9050600061107584610d8f565b9050600083838360405160200161108e93929190612cdf565b604051602081830303815290604052905060006110aa866108df565b905060006008826009856040516020016110c79493929190612d10565b6040516020818303038152906040529050600061110c846110e784611ce7565b6040516020016110f8929190612dbf565b604051602081830303815290604052611ce7565b90506000816040516020016111219190612e26565b60405160208183030381529060405290506111706040518060400160405280601581526020017f0a2d2d2d2d2d2d2d2d2d2d2d2d2d2d2d2d2d2d2d2d00000000000000000000008152506112fd565b611179816112fd565b6111a18160405160200161118d9190612d59565b6040516020818303038152906040526112fd565b6111df6040518060400160405280601581526020017f2d2d2d2d2d2d2d2d2d2d2d2d2d2d2d2d2d2d2d2d0a00000000000000000000008152506112fd565b6111e9338a611ea5565b6111f38982611ec3565b6111fd6007611f37565b611220604051806060016040528060258152602001613d09602591398a33611f4d565b7febb98688741ffa4c7589bf325de30cf7becb63de567842e1ccdb6cb949fdc82c338a604051611251929190612ed1565b60405180910390a1505050505050505050565b6000600560008473ffffffffffffffffffffffffffffffffffffffff1673ffffffffffffffffffffffffffffffffffffffff16815260200190815260200160002060008373ffffffffffffffffffffffffffffffffffffffff1673ffffffffffffffffffffffffffffffffffffffff16815260200190815260200160002060009054906101000a900460ff16905092915050565b603281565b611393816040516024016113119190612f15565b6040516020818303038152906040527f41304fac000000000000000000000000000000000000000000000000000000007bffffffffffffffffffffffffffffffffffffffffffffffffffffffff19166020820180517bffffffffffffffffffffffffffffffffffffffffffffffffffffffff8381831617835250505050611fec565b50565b60007f01ffc9a7000000000000000000000000000000000000000000000000000000007bffffffffffffffffffffffffffffffffffffffffffffffffffffffff1916827bffffffffffffffffffffffffffffffffffffffffffffffffffffffff1916149050919050565b600081600001549050919050565b60008073ffffffffffffffffffffffffffffffffffffffff166002600084815260200190815260200160002060009054906101000a900473ffffffffffffffffffffffffffffffffffffffff1673ffffffffffffffffffffffffffffffffffffffff1614159050919050565b600033905090565b816004600083815260200190815260200160002060006101000a81548173ffffffffffffffffffffffffffffffffffffffff021916908373ffffffffffffffffffffffffffffffffffffffff160217905550808273ffffffffffffffffffffffffffffffffffffffff166114f5836109fd565b73ffffffffffffffffffffffffffffffffffffffff167f8c5be1e5ebec7d5bd14f71427d1e84f3dd0314c0f7b2291e5b200ac8c7c3b92560405160405180910390a45050565b60006115468261140e565b611585576040517f08c379a000000000000000000000000000000000000000000000000000000000815260040161157c90613035565b60405180910390fd5b6000611590836109fd565b90508073ffffffffffffffffffffffffffffffffffffffff168473ffffffffffffffffffffffffffffffffffffffff1614806115ff57508373ffffffffffffffffffffffffffffffffffffffff166115e7846105a4565b73ffffffffffffffffffffffffffffffffffffffff16145b80611610575061160f8185611264565b5b91505092915050565b8273ffffffffffffffffffffffffffffffffffffffff16611639826109fd565b73ffffffffffffffffffffffffffffffffffffffff161461168f576040517f08c379a000000000000000000000000000000000000000000000000000000000815260040161168690612f95565b60405180910390fd5b600073ffffffffffffffffffffffffffffffffffffffff168273ffffffffffffffffffffffffffffffffffffffff1614156116ff576040517f08c379a00000000000000000000000000000000000000000000000000000000081526004016116f690612fd5565b60405180910390fd5b61170a838383612015565b611715600082611482565b6001600360008573ffffffffffffffffffffffffffffffffffffffff1673ffffffffffffffffffffffffffffffffffffffff1681526020019081526020016000206000828254611765919061333f565b925050819055506001600360008473ffffffffffffffffffffffffffffffffffffffff1673ffffffffffffffffffffffffffffffffffffffff16815260200190815260200160002060008282546117bc919061325e565b92505081905550816002600083815260200190815260200160002060006101000a81548173ffffffffffffffffffffffffffffffffffffffff021916908373ffffffffffffffffffffffffffffffffffffffff160217905550808273ffffffffffffffffffffffffffffffffffffffff168473ffffffffffffffffffffffffffffffffffffffff167fddf252ad1be2c89b69c2b068fc378daa952ba7f163c4a11628f55a4df523b3ef60405160405180910390a461187b83838361201a565b505050565b606060008214156118c8576040518060400160405280600181526020017f30000000000000000000000000000000000000000000000000000000000000008152509050611a28565b600082905060005b600082146118fa5780806118e39061348c565b915050600a826118f391906132b4565b91506118d0565b60008167ffffffffffffffff81111561193c577f4e487b7100000000000000000000000000000000000000000000000000000000600052604160045260246000fd5b6040519080825280601f01601f19166020018201604052801561196e5781602001600182028036833780820191505090505b5090505b60008514611a2157600182611987919061333f565b9150600a8561199691906134d5565b60306119a2919061325e565b60f81b8183815181106119de577f4e487b7100000000000000000000000000000000000000000000000000000000600052603260045260246000fd5b60200101907effffffffffffffffffffffffffffffffffffffffffffffffffffffffffffff1916908160001a905350600a85611a1a91906132b4565b9450611972565b8093505050505b919050565b600081604051602001611a409190612ca4565b6040516020818303038152906040528051906020012060001c9050919050565b8173ffffffffffffffffffffffffffffffffffffffff168373ffffffffffffffffffffffffffffffffffffffff161415611acf576040517f08c379a0000000000000000000000000000000000000000000000000000000008152600401611ac690612ff5565b60405180910390fd5b80600560008573ffffffffffffffffffffffffffffffffffffffff1673ffffffffffffffffffffffffffffffffffffffff16815260200190815260200160002060008473ffffffffffffffffffffffffffffffffffffffff1673ffffffffffffffffffffffffffffffffffffffff16815260200190815260200160002060006101000a81548160ff0219169083151502179055508173ffffffffffffffffffffffffffffffffffffffff168373ffffffffffffffffffffffffffffffffffffffff167f17307eab39ab6107e8899845ad3d59bd9653f200f220920489ca2b5937696c3183604051611bc09190612efa565b60405180910390a3505050565b611bd8848484611619565b611be48484848461201f565b611c23576040517f08c379a0000000000000000000000000000000000000000000000000000000008152600401611c1a90612f75565b60405180910390fd5b50505050565b606060405180602001604052806000815250905090565b6060611c4b8261140e565b611c8a576040517f08c379a0000000000000000000000000000000000000000000000000000000008152600401611c8190613135565b60405180910390fd5b6000611c94611c29565b90506000815111611cb45760405180602001604052806000815250611cdf565b80611cbe84611880565b604051602001611ccf929190612cbb565b6040516020818303038152906040525b915050919050565b60606000825190506000811415611d105760405180602001604052806000815250915050611ea0565b60006003600283611d21919061325e565b611d2b91906132b4565b6004611d3791906132e5565b90506000602082611d48919061325e565b67ffffffffffffffff811115611d87577f4e487b7100000000000000000000000000000000000000000000000000000000600052604160045260246000fd5b6040519080825280601f01601f191660200182016040528015611db95781602001600182028036833780820191505090505b5090506000604051806060016040528060408152602001613d2e604091399050600181016020830160005b86811015611e5d5760038101905062ffffff818a015116603f8160121c168401518060081b905060ff603f83600c1c1686015116810190508060081b905060ff603f8360061c1686015116810190508060081b905060ff603f831686015116810190508060e01b90508084526004840193505050611de4565b506003860660018114611e775760028114611e8757611e92565b613d3d60f01b6002830352611e92565b603d60f81b60018303525b508484525050819450505050505b919050565b611ebf8282604051806020016040528060008152506121b6565b5050565b611ecc8261140e565b611f0b576040517f08c379a0000000000000000000000000000000000000000000000000000000008152600401611f02906130b5565b60405180910390fd5b80600660008481526020019081526020016000209080519060200190611f3292919061240e565b505050565b6001816000016000828254019250508190555050565b611fe7838383604051602401611f6593929190612f37565b6040516020818303038152906040527fe3849f79000000000000000000000000000000000000000000000000000000007bffffffffffffffffffffffffffffffffffffffffffffffffffffffff19166020820180517bffffffffffffffffffffffffffffffffffffffffffffffffffffffff8381831617835250505050611fec565b505050565b60008151905060006a636f6e736f6c652e6c6f679050602083016000808483855afa5050505050565b505050565b505050565b60006120408473ffffffffffffffffffffffffffffffffffffffff16612211565b156121a9578373ffffffffffffffffffffffffffffffffffffffff1663150b7a0261206961147a565b8786866040518563ffffffff1660e01b815260040161208b9493929190612e85565b602060405180830381600087803b1580156120a557600080fd5b505af19250505080156120d657506040513d601f19601f820116820180604052508101906120d39190612752565b60015b612159573d8060008114612106576040519150601f19603f3d011682016040523d82523d6000602084013e61210b565b606091505b50600081511415612151576040517f08c379a000000000000000000000000000000000000000000000000000000000815260040161214890612f75565b60405180910390fd5b805181602001fd5b63150b7a0260e01b7bffffffffffffffffffffffffffffffffffffffffffffffffffffffff1916817bffffffffffffffffffffffffffffffffffffffffffffffffffffffff1916149150506121ae565b600190505b949350505050565b6121c08383612234565b6121cd600084848461201f565b61220c576040517f08c379a000000000000000000000000000000000000000000000000000000000815260040161220390612f75565b60405180910390fd5b505050565b6000808273ffffffffffffffffffffffffffffffffffffffff163b119050919050565b600073ffffffffffffffffffffffffffffffffffffffff168273ffffffffffffffffffffffffffffffffffffffff1614156122a4576040517f08c379a000000000000000000000000000000000000000000000000000000000815260040161229b906130d5565b60405180910390fd5b6122ad8161140e565b156122ed576040517f08c379a00000000000000000000000000000000000000000000000000000000081526004016122e490612fb5565b60405180910390fd5b6122f960008383612015565b6001600360008473ffffffffffffffffffffffffffffffffffffffff1673ffffffffffffffffffffffffffffffffffffffff1681526020019081526020016000206000828254612349919061325e565b92505081905550816002600083815260200190815260200160002060006101000a81548173ffffffffffffffffffffffffffffffffffffffff021916908373ffffffffffffffffffffffffffffffffffffffff160217905550808273ffffffffffffffffffffffffffffffffffffffff16600073ffffffffffffffffffffffffffffffffffffffff167fddf252ad1be2c89b69c2b068fc378daa952ba7f163c4a11628f55a4df523b3ef60405160405180910390a461240a6000838361201a565b5050565b82805461241a90613429565b90600052602060002090601f01602090048101928261243c5760008555612483565b82601f1061245557805160ff1916838001178555612483565b82800160010185558215612483579182015b82811115612482578251825591602001919060010190612467565b5b5090506124909190612494565b5090565b5b808211156124ad576000816000905550600101612495565b5090565b60006124c46124bf846131d5565b6131b0565b9050828152602081018484840111156124dc57600080fd5b6124e78482856133e7565b509392505050565b6000813590506124fe81613cac565b92915050565b60008135905061251381613cc3565b92915050565b60008135905061252881613cda565b92915050565b60008151905061253d81613cda565b92915050565b600082601f83011261255457600080fd5b81356125648482602086016124b1565b91505092915050565b60008135905061257c81613cf1565b92915050565b60006020828403121561259457600080fd5b60006125a2848285016124ef565b91505092915050565b600080604083850312156125be57600080fd5b60006125cc858286016124ef565b92505060206125dd858286016124ef565b9150509250929050565b6000806000606084860312156125fc57600080fd5b600061260a868287016124ef565b935050602061261b868287016124ef565b925050604061262c8682870161256d565b9150509250925092565b6000806000806080858703121561264c57600080fd5b600061265a878288016124ef565b945050602061266b878288016124ef565b935050604061267c8782880161256d565b925050606085013567ffffffffffffffff81111561269957600080fd5b6126a587828801612543565b91505092959194509250565b600080604083850312156126c457600080fd5b60006126d2858286016124ef565b92505060206126e385828601612504565b9150509250929050565b6000806040838503121561270057600080fd5b600061270e858286016124ef565b925050602061271f8582860161256d565b9150509250929050565b60006020828403121561273b57600080fd5b600061274984828501612519565b91505092915050565b60006020828403121561276457600080fd5b60006127728482850161252e565b91505092915050565b60006020828403121561278d57600080fd5b600061279b8482850161256d565b91505092915050565b6127ad81613373565b82525050565b6127bc81613385565b82525050565b60006127cd8261321b565b6127d78185613231565b93506127e78185602086016133f6565b6127f0816135c2565b840191505092915050565b600061280682613226565b6128108185613242565b93506128208185602086016133f6565b612829816135c2565b840191505092915050565b600061283f82613226565b6128498185613253565b93506128598185602086016133f6565b80840191505092915050565b6000815461287281613429565b61287c8186613253565b9450600182166000811461289757600181146128a8576128db565b60ff198316865281860193506128db565b6128b185613206565b60005b838110156128d3578154818901526001820191506020810190506128b4565b838801955050505b50505092915050565b60006128f1602583613253565b91506128fc826135d3565b602582019050919050565b6000612914603283613242565b915061291f82613622565b604082019050919050565b6000612937602583613242565b915061294282613671565b604082019050919050565b600061295a601c83613242565b9150612965826136c0565b602082019050919050565b600061297d600a83613253565b9150612988826136e9565b600a82019050919050565b60006129a0602483613242565b91506129ab82613712565b604082019050919050565b60006129c3601983613242565b91506129ce82613761565b602082019050919050565b60006129e6606383613253565b91506129f18261378a565b606382019050919050565b6000612a09601a83613242565b9150612a1482613825565b602082019050919050565b6000612a2c600b83613253565b9150612a378261384e565b600b82019050919050565b6000612a4f602c83613242565b9150612a5a82613877565b604082019050919050565b6000612a72600d83613253565b9150612a7d826138c6565b600d82019050919050565b6000612a95603883613242565b9150612aa0826138ef565b604082019050919050565b6000612ab8602a83613242565b9150612ac38261393e565b604082019050919050565b6000612adb602983613242565b9150612ae68261398d565b604082019050919050565b6000612afe602e83613242565b9150612b09826139dc565b604082019050919050565b6000612b21600283613253565b9150612b2c82613a2b565b600282019050919050565b6000612b44602083613242565b9150612b4f82613a54565b602082019050919050565b6000612b67603183613242565b9150612b7282613a7d565b604082019050919050565b6000612b8a602c83613242565b9150612b9582613acc565b604082019050919050565b6000612bad602f83613242565b9150612bb882613b1b565b604082019050919050565b6000612bd0600a83613253565b9150612bdb82613b6a565b600a82019050919050565b6000612bf3602183613242565b9150612bfe82613b93565b604082019050919050565b6000612c16600a83613253565b9150612c2182613be2565b600a82019050919050565b6000612c39601d83613253565b9150612c4482613c0b565b601d82019050919050565b6000612c5c603183613242565b9150612c6782613c34565b604082019050919050565b6000612c7f600583613253565b9150612c8a82613c83565b600582019050919050565b612c9e816133dd565b82525050565b6000612cb08284612834565b915081905092915050565b6000612cc78285612834565b9150612cd38284612834565b91508190509392505050565b6000612ceb8286612834565b9150612cf78285612834565b9150612d038284612834565b9150819050949350505050565b6000612d1c8287612865565b9150612d288286612834565b9150612d348285612865565b9150612d408284612834565b9150612d4b82612a65565b915081905095945050505050565b6000612d64826128e4565b9150612d708284612834565b915081905092915050565b6000612d8682612970565b9150612d928284612834565b915081905092915050565b6000612da882612a1f565b9150612db48284612834565b915081905092915050565b6000612dca82612bc3565b9150612dd68285612834565b9150612de1826129d9565b9150612ded8284612834565b9150612df882612b14565b91508190509392505050565b6000612e0f82612c09565b9150612e1b8284612834565b915081905092915050565b6000612e3182612c2c565b9150612e3d8284612834565b915081905092915050565b6000612e5382612c72565b9150612e5f8284612834565b915081905092915050565b6000602082019050612e7f60008301846127a4565b92915050565b6000608082019050612e9a60008301876127a4565b612ea760208301866127a4565b612eb46040830185612c95565b8181036060830152612ec681846127c2565b905095945050505050565b6000604082019050612ee660008301856127a4565b612ef36020830184612c95565b9392505050565b6000602082019050612f0f60008301846127b3565b92915050565b60006020820190508181036000830152612f2f81846127fb565b905092915050565b60006060820190508181036000830152612f5181866127fb565b9050612f606020830185612c95565b612f6d60408301846127a4565b949350505050565b60006020820190508181036000830152612f8e81612907565b9050919050565b60006020820190508181036000830152612fae8161292a565b9050919050565b60006020820190508181036000830152612fce8161294d565b9050919050565b60006020820190508181036000830152612fee81612993565b9050919050565b6000602082019050818103600083015261300e816129b6565b9050919050565b6000602082019050818103600083015261302e816129fc565b9050919050565b6000602082019050818103600083015261304e81612a42565b9050919050565b6000602082019050818103600083015261306e81612a88565b9050919050565b6000602082019050818103600083015261308e81612aab565b9050919050565b600060208201905081810360008301526130ae81612ace565b9050919050565b600060208201905081810360008301526130ce81612af1565b9050919050565b600060208201905081810360008301526130ee81612b37565b9050919050565b6000602082019050818103600083015261310e81612b5a565b9050919050565b6000602082019050818103600083015261312e81612b7d565b9050919050565b6000602082019050818103600083015261314e81612ba0565b9050919050565b6000602082019050818103600083015261316e81612be6565b9050919050565b6000602082019050818103600083015261318e81612c4f565b9050919050565b60006020820190506131aa6000830184612c95565b92915050565b60006131ba6131cb565b90506131c6828261345b565b919050565b6000604051905090565b600067ffffffffffffffff8211156131f0576131ef613593565b5b6131f9826135c2565b9050602081019050919050565b60008190508160005260206000209050919050565b600081519050919050565b600081519050919050565b600082825260208201905092915050565b600082825260208201905092915050565b600081905092915050565b6000613269826133dd565b9150613274836133dd565b9250827fffffffffffffffffffffffffffffffffffffffffffffffffffffffffffffffff038211156132a9576132a8613506565b5b828201905092915050565b60006132bf826133dd565b91506132ca836133dd565b9250826132da576132d9613535565b5b828204905092915050565b60006132f0826133dd565b91506132fb836133dd565b9250817fffffffffffffffffffffffffffffffffffffffffffffffffffffffffffffffff048311821515161561333457613333613506565b5b828202905092915050565b600061334a826133dd565b9150613355836133dd565b92508282101561336857613367613506565b5b828203905092915050565b600061337e826133bd565b9050919050565b60008115159050919050565b60007fffffffff0000000000000000000000000000000000000000000000000000000082169050919050565b600073ffffffffffffffffffffffffffffffffffffffff82169050919050565b6000819050919050565b82818337600083830152505050565b60005b838110156134145780820151818401526020810190506133f9565b83811115613423576000848401525b50505050565b6000600282049050600182168061344157607f821691505b6020821081141561345557613454613564565b5b50919050565b613464826135c2565b810181811067ffffffffffffffff8211171561348357613482613593565b5b80604052505050565b6000613497826133dd565b91507fffffffffffffffffffffffffffffffffffffffffffffffffffffffffffffffff8214156134ca576134c9613506565b5b600182019050919050565b60006134e0826133dd565b91506134eb836133dd565b9250826134fb576134fa613535565b5b828206905092915050565b7f4e487b7100000000000000000000000000000000000000000000000000000000600052601160045260246000fd5b7f4e487b7100000000000000000000000000000000000000000000000000000000600052601260045260246000fd5b7f4e487b7100000000000000000000000000000000000000000000000000000000600052602260045260246000fd5b7f4e487b7100000000000000000000000000000000000000000000000000000000600052604160045260246000fd5b6000601f19601f8301169050919050565b7f68747470733a2f2f6e6674707265766965772e30786465762e636f6465732f3f60008201527f636f64653d000000000000000000000000000000000000000000000000000000602082015250565b7f4552433732313a207472616e7366657220746f206e6f6e20455243373231526560008201527f63656976657220696d706c656d656e7465720000000000000000000000000000602082015250565b7f4552433732313a207472616e736665722066726f6d20696e636f72726563742060008201527f6f776e6572000000000000000000000000000000000000000000000000000000602082015250565b7f4552433732313a20746f6b656e20616c7265616479206d696e74656400000000600082015250565b7f54484952445f574f524400000000000000000000000000000000000000000000600082015250565b7f4552433732313a207472616e7366657220746f20746865207a65726f2061646460008201527f7265737300000000000000000000000000000000000000000000000000000000602082015250565b7f4552433732313a20617070726f766520746f2063616c6c657200000000000000600082015250565b7f222c20226465736372697074696f6e223a20224120686967686c79206163636c60008201527f61696d656420636f6c6c656374696f6e206f6620737175617265732e222c202260208201527f696d616765223a2022646174613a696d6167652f7376672b786d6c3b6261736560408201527f36342c0000000000000000000000000000000000000000000000000000000000606082015250565b7f416c6c204e4654732068617665206265656e206d696e7465642e000000000000600082015250565b7f5345434f4e445f574f5244000000000000000000000000000000000000000000600082015250565b7f4552433732313a206f70657261746f7220717565727920666f72206e6f6e657860008201527f697374656e7420746f6b656e0000000000000000000000000000000000000000602082015250565b7f3c2f746578743e3c2f7376673e00000000000000000000000000000000000000600082015250565b7f4552433732313a20617070726f76652063616c6c6572206973206e6f74206f7760008201527f6e6572206e6f7220617070726f76656420666f7220616c6c0000000000000000602082015250565b7f4552433732313a2062616c616e636520717565727920666f7220746865207a6560008201527f726f206164647265737300000000000000000000000000000000000000000000602082015250565b7f4552433732313a206f776e657220717565727920666f72206e6f6e657869737460008201527f656e7420746f6b656e0000000000000000000000000000000000000000000000602082015250565b7f45524337323155524953746f726167653a2055524920736574206f66206e6f6e60008201527f6578697374656e7420746f6b656e000000000000000000000000000000000000602082015250565b7f227d000000000000000000000000000000000000000000000000000000000000600082015250565b7f4552433732313a206d696e7420746f20746865207a65726f2061646472657373600082015250565b7f45524337323155524953746f726167653a2055524920717565727920666f722060008201527f6e6f6e6578697374656e7420746f6b656e000000000000000000000000000000602082015250565b7f4552433732313a20617070726f76656420717565727920666f72206e6f6e657860008201527f697374656e7420746f6b656e0000000000000000000000000000000000000000602082015250565b7f4552433732314d657461646174613a2055524920717565727920666f72206e6f60008201527f6e6578697374656e7420746f6b656e0000000000000000000000000000000000602082015250565b7f7b226e616d65223a202200000000000000000000000000000000000000000000600082015250565b7f4552433732313a20617070726f76616c20746f2063757272656e74206f776e6560008201527f7200000000000000000000000000000000000000000000000000000000000000602082015250565b7f46495253545f574f524400000000000000000000000000000000000000000000600082015250565b7f646174613a6170706c69636174696f6e2f6a736f6e3b6261736536342c000000600082015250565b7f4552433732313a207472616e736665722063616c6c6572206973206e6f74206f60008201527f776e6572206e6f7220617070726f766564000000000000000000000000000000602082015250565b7f434f4c4f52000000000000000000000000000000000000000000000000000000600082015250565b613cb581613373565b8114613cc057600080fd5b50565b613ccc81613385565b8114613cd757600080fd5b50565b613ce381613391565b8114613cee57600080fd5b50565b613cfa816133dd565b8114613d0557600080fd5b5056fe416e204e465420772f20494420257320686173206265656e206d696e74656420746f2025734142434445464748494a4b4c4d4e4f505152535455565758595a6162636465666768696a6b6c6d6e6f707172737475767778797a303132333435363738392b2fa2646970667358221220a6d9f868a829a518f5a652785e757cf83096fd6d8de92bc03f602c6f7e743c6e64736f6c634300080400333c73766720786d6c6e733d27687474703a2f2f7777772e77332e6f72672f323030302f73766727207072657365727665417370656374526174696f3d27784d696e594d696e206d656574272076696577426f783d273020302033353020333530273e3c7374796c653e2e62617365207b2066696c6c3a2077686974653b20666f6e742d66616d696c793a2073657269663b20666f6e742d73697a653a20323470783b207d3c2f7374796c653e3c726563742077696474683d273130302527206865696768743d2731303025272066696c6c3d27272f3e3c7465787420783d273530252720793d273530252720636c6173733d27626173652720646f6d696e616e742d626173656c696e653d276d6964646c652720746578742d616e63686f723d276d6964646c65273e",
  "linkReferences": {},
  "deployedLinkReferences": {}
}